{
  "_format": "hh-sol-artifact-1",
  "contractName": "PassPet",
  "sourceName": "contracts/Passpet.sol",
  "abi": [
    {
      "inputs": [],
      "stateMutability": "nonpayable",
      "type": "constructor"
    },
    {
      "anonymous": false,
      "inputs": [
        {
          "indexed": true,
          "internalType": "address",
          "name": "owner",
          "type": "address"
        },
        {
          "indexed": true,
          "internalType": "address",
          "name": "approved",
          "type": "address"
        },
        {
          "indexed": true,
          "internalType": "uint256",
          "name": "tokenId",
          "type": "uint256"
        }
      ],
      "name": "Approval",
      "type": "event"
    },
    {
      "anonymous": false,
      "inputs": [
        {
          "indexed": true,
          "internalType": "address",
          "name": "owner",
          "type": "address"
        },
        {
          "indexed": true,
          "internalType": "address",
          "name": "operator",
          "type": "address"
        },
        {
          "indexed": false,
          "internalType": "bool",
          "name": "approved",
          "type": "bool"
        }
      ],
      "name": "ApprovalForAll",
      "type": "event"
    },
    {
      "anonymous": false,
      "inputs": [
        {
          "indexed": true,
          "internalType": "address",
          "name": "previousOwner",
          "type": "address"
        },
        {
          "indexed": true,
          "internalType": "address",
          "name": "newOwner",
          "type": "address"
        }
      ],
      "name": "OwnershipTransferred",
      "type": "event"
    },
    {
      "anonymous": false,
      "inputs": [
        {
          "indexed": true,
          "internalType": "address",
          "name": "from",
          "type": "address"
        },
        {
          "indexed": true,
          "internalType": "address",
          "name": "to",
          "type": "address"
        },
        {
          "indexed": true,
          "internalType": "uint256",
          "name": "tokenId",
          "type": "uint256"
        }
      ],
      "name": "Transfer",
      "type": "event"
    },
    {
      "inputs": [
        {
          "internalType": "address",
          "name": "to",
          "type": "address"
        },
        {
          "internalType": "uint256",
          "name": "tokenId",
          "type": "uint256"
        }
      ],
      "name": "approve",
      "outputs": [],
      "stateMutability": "nonpayable",
      "type": "function"
    },
    {
      "inputs": [
        {
          "internalType": "address",
          "name": "owner",
          "type": "address"
        }
      ],
      "name": "balanceOf",
      "outputs": [
        {
          "internalType": "uint256",
          "name": "",
          "type": "uint256"
        }
      ],
      "stateMutability": "view",
      "type": "function"
    },
    {
      "inputs": [
        {
          "internalType": "uint256",
          "name": "tokenId",
          "type": "uint256"
        }
      ],
      "name": "getApproved",
      "outputs": [
        {
          "internalType": "address",
          "name": "",
          "type": "address"
        }
      ],
      "stateMutability": "view",
      "type": "function"
    },
    {
      "inputs": [
        {
          "internalType": "address",
          "name": "owner",
          "type": "address"
        },
        {
          "internalType": "address",
          "name": "operator",
          "type": "address"
        }
      ],
      "name": "isApprovedForAll",
      "outputs": [
        {
          "internalType": "bool",
          "name": "",
          "type": "bool"
        }
      ],
      "stateMutability": "view",
      "type": "function"
    },
    {
      "inputs": [
        {
          "internalType": "address",
          "name": "petOwner",
          "type": "address"
        },
        {
          "internalType": "string",
          "name": "metadataURI",
          "type": "string"
        }
      ],
      "name": "mintPET",
      "outputs": [
        {
          "internalType": "uint256",
          "name": "",
          "type": "uint256"
        }
      ],
      "stateMutability": "nonpayable",
      "type": "function"
    },
    {
      "inputs": [],
      "name": "name",
      "outputs": [
        {
          "internalType": "string",
          "name": "",
          "type": "string"
        }
      ],
      "stateMutability": "view",
      "type": "function"
    },
    {
      "inputs": [],
      "name": "owner",
      "outputs": [
        {
          "internalType": "address",
          "name": "",
          "type": "address"
        }
      ],
      "stateMutability": "view",
      "type": "function"
    },
    {
      "inputs": [
        {
          "internalType": "uint256",
          "name": "tokenId",
          "type": "uint256"
        }
      ],
      "name": "ownerOf",
      "outputs": [
        {
          "internalType": "address",
          "name": "",
          "type": "address"
        }
      ],
      "stateMutability": "view",
      "type": "function"
    },
    {
      "inputs": [],
      "name": "renounceOwnership",
      "outputs": [],
      "stateMutability": "nonpayable",
      "type": "function"
    },
    {
      "inputs": [
        {
          "internalType": "address",
          "name": "from",
          "type": "address"
        },
        {
          "internalType": "address",
          "name": "to",
          "type": "address"
        },
        {
          "internalType": "uint256",
          "name": "tokenId",
          "type": "uint256"
        }
      ],
      "name": "safeTransferFrom",
      "outputs": [],
      "stateMutability": "nonpayable",
      "type": "function"
    },
    {
      "inputs": [
        {
          "internalType": "address",
          "name": "from",
          "type": "address"
        },
        {
          "internalType": "address",
          "name": "to",
          "type": "address"
        },
        {
          "internalType": "uint256",
          "name": "tokenId",
          "type": "uint256"
        },
        {
          "internalType": "bytes",
          "name": "_data",
          "type": "bytes"
        }
      ],
      "name": "safeTransferFrom",
      "outputs": [],
      "stateMutability": "nonpayable",
      "type": "function"
    },
    {
      "inputs": [
        {
          "internalType": "address",
          "name": "operator",
          "type": "address"
        },
        {
          "internalType": "bool",
          "name": "approved",
          "type": "bool"
        }
      ],
      "name": "setApprovalForAll",
      "outputs": [],
      "stateMutability": "nonpayable",
      "type": "function"
    },
    {
      "inputs": [
        {
          "internalType": "bytes4",
          "name": "interfaceId",
          "type": "bytes4"
        }
      ],
      "name": "supportsInterface",
      "outputs": [
        {
          "internalType": "bool",
          "name": "",
          "type": "bool"
        }
      ],
      "stateMutability": "view",
      "type": "function"
    },
    {
      "inputs": [],
      "name": "symbol",
      "outputs": [
        {
          "internalType": "string",
          "name": "",
          "type": "string"
        }
      ],
      "stateMutability": "view",
      "type": "function"
    },
    {
      "inputs": [
        {
          "internalType": "uint256",
          "name": "tokenId",
          "type": "uint256"
        }
      ],
      "name": "tokenURI",
      "outputs": [
        {
          "internalType": "string",
          "name": "",
          "type": "string"
        }
      ],
      "stateMutability": "view",
      "type": "function"
    },
    {
      "inputs": [
        {
          "internalType": "address",
          "name": "from",
          "type": "address"
        },
        {
          "internalType": "address",
          "name": "to",
          "type": "address"
        },
        {
          "internalType": "uint256",
          "name": "tokenId",
          "type": "uint256"
        }
      ],
      "name": "transferFrom",
      "outputs": [],
      "stateMutability": "nonpayable",
      "type": "function"
    },
    {
      "inputs": [
        {
          "internalType": "address",
          "name": "newOwner",
          "type": "address"
        }
      ],
      "name": "transferOwnership",
      "outputs": [],
      "stateMutability": "nonpayable",
      "type": "function"
    }
  ],
  "bytecode": "0x60806040523480156200001157600080fd5b506040518060400160405280600781526020017f50617373506574000000000000000000000000000000000000000000000000008152506040518060400160405280600381526020017f5045540000000000000000000000000000000000000000000000000000000000815250816000908051906020019062000096929190620001a6565b508060019080519060200190620000af929190620001a6565b505050620000d2620000c6620000d860201b60201c565b620000e060201b60201c565b620002bb565b600033905090565b6000600760009054906101000a900473ffffffffffffffffffffffffffffffffffffffff16905081600760006101000a81548173ffffffffffffffffffffffffffffffffffffffff021916908373ffffffffffffffffffffffffffffffffffffffff1602179055508173ffffffffffffffffffffffffffffffffffffffff168173ffffffffffffffffffffffffffffffffffffffff167f8be0079c531659141344cd1fd0a4f28419497f9722a3daafe3b4186f6b6457e060405160405180910390a35050565b828054620001b49062000256565b90600052602060002090601f016020900481019282620001d8576000855562000224565b82601f10620001f357805160ff191683800117855562000224565b8280016001018555821562000224579182015b828111156200022357825182559160200191906001019062000206565b5b50905062000233919062000237565b5090565b5b808211156200025257600081600090555060010162000238565b5090565b600060028204905060018216806200026f57607f821691505b602082108114156200028657620002856200028c565b5b50919050565b7f4e487b7100000000000000000000000000000000000000000000000000000000600052602260045260246000fd5b612f3580620002cb6000396000f3fe608060405234801561001057600080fd5b506004361061010b5760003560e01c8063715018a6116100a2578063a22cb46511610071578063a22cb465146102b8578063b88d4fde146102d4578063c87b56dd146102f0578063e985e9c514610320578063f2fde38b146103505761010b565b8063715018a61461024257806389bf8d311461024c5780638da5cb5b1461027c57806395d89b411461029a5761010b565b806323b872dd116100de57806323b872dd146101aa57806342842e0e146101c65780636352211e146101e257806370a08231146102125761010b565b806301ffc9a71461011057806306fdde0314610140578063081812fc1461015e578063095ea7b31461018e575b600080fd5b61012a60048036038101906101259190611fe3565b61036c565b604051610137919061284d565b60405180910390f35b61014861044e565b6040516101559190612868565b60405180910390f35b61017860048036038101906101739190612035565b6104e0565b60405161018591906127e6565b60405180910390f35b6101a860048036038101906101a39190611fa7565b610565565b005b6101c460048036038101906101bf9190611e4d565b61067d565b005b6101e060048036038101906101db9190611e4d565b6106dd565b005b6101fc60048036038101906101f79190612035565b6106fd565b60405161020991906127e6565b60405180910390f35b61022c60048036038101906102279190611de8565b6107af565b6040516102399190612aca565b60405180910390f35b61024a610867565b005b61026660048036038101906102619190611f53565b6108ef565b6040516102739190612aca565b60405180910390f35b6102846109a3565b60405161029191906127e6565b60405180910390f35b6102a26109cd565b6040516102af9190612868565b60405180910390f35b6102d260048036038101906102cd9190611f17565b610a5f565b005b6102ee60048036038101906102e99190611e9c565b610be0565b005b61030a60048036038101906103059190612035565b610c42565b6040516103179190612868565b60405180910390f35b61033a60048036038101906103359190611e11565b610d94565b604051610347919061284d565b60405180910390f35b61036a60048036038101906103659190611de8565b610e28565b005b60007f80ac58cd000000000000000000000000000000000000000000000000000000007bffffffffffffffffffffffffffffffffffffffffffffffffffffffff1916827bffffffffffffffffffffffffffffffffffffffffffffffffffffffff1916148061043757507f5b5e139f000000000000000000000000000000000000000000000000000000007bffffffffffffffffffffffffffffffffffffffffffffffffffffffff1916827bffffffffffffffffffffffffffffffffffffffffffffffffffffffff1916145b80610447575061044682610f20565b5b9050919050565b60606000805461045d90612d2a565b80601f016020809104026020016040519081016040528092919081815260200182805461048990612d2a565b80156104d65780601f106104ab576101008083540402835291602001916104d6565b820191906000526020600020905b8154815290600101906020018083116104b957829003601f168201915b5050505050905090565b60006104eb82610f8a565b61052a576040517f08c379a000000000000000000000000000000000000000000000000000000000815260040161052190612a0a565b60405180910390fd5b6004600083815260200190815260200160002060009054906101000a900473ffffffffffffffffffffffffffffffffffffffff169050919050565b6000610570826106fd565b90508073ffffffffffffffffffffffffffffffffffffffff168373ffffffffffffffffffffffffffffffffffffffff1614156105e1576040517f08c379a00000000000000000000000000000000000000000000000000000000081526004016105d890612a8a565b60405180910390fd5b8073ffffffffffffffffffffffffffffffffffffffff16610600610ff6565b73ffffffffffffffffffffffffffffffffffffffff16148061062f575061062e81610629610ff6565b610d94565b5b61066e576040517f08c379a00000000000000000000000000000000000000000000000000000000081526004016106659061294a565b60405180910390fd5b6106788383610ffe565b505050565b61068e610688610ff6565b826110b7565b6106cd576040517f08c379a00000000000000000000000000000000000000000000000000000000081526004016106c490612aaa565b60405180910390fd5b6106d8838383611195565b505050565b6106f883838360405180602001604052806000815250610be0565b505050565b6000806002600084815260200190815260200160002060009054906101000a900473ffffffffffffffffffffffffffffffffffffffff169050600073ffffffffffffffffffffffffffffffffffffffff168173ffffffffffffffffffffffffffffffffffffffff1614156107a6576040517f08c379a000000000000000000000000000000000000000000000000000000000815260040161079d9061298a565b60405180910390fd5b80915050919050565b60008073ffffffffffffffffffffffffffffffffffffffff168273ffffffffffffffffffffffffffffffffffffffff161415610820576040517f08c379a00000000000000000000000000000000000000000000000000000000081526004016108179061296a565b60405180910390fd5b600360008373ffffffffffffffffffffffffffffffffffffffff1673ffffffffffffffffffffffffffffffffffffffff168152602001908152602001600020549050919050565b61086f610ff6565b73ffffffffffffffffffffffffffffffffffffffff1661088d6109a3565b73ffffffffffffffffffffffffffffffffffffffff16146108e3576040517f08c379a00000000000000000000000000000000000000000000000000000000081526004016108da90612a2a565b60405180910390fd5b6108ed60006113f1565b565b60006108f9610ff6565b73ffffffffffffffffffffffffffffffffffffffff166109176109a3565b73ffffffffffffffffffffffffffffffffffffffff161461096d576040517f08c379a000000000000000000000000000000000000000000000000000000000815260040161096490612a2a565b60405180910390fd5b61097760086114b7565b600061098360086114cd565b905061098f84826114db565b61099981846114f9565b8091505092915050565b6000600760009054906101000a900473ffffffffffffffffffffffffffffffffffffffff16905090565b6060600180546109dc90612d2a565b80601f0160208091040260200160405190810160405280929190818152602001828054610a0890612d2a565b8015610a555780601f10610a2a57610100808354040283529160200191610a55565b820191906000526020600020905b815481529060010190602001808311610a3857829003601f168201915b5050505050905090565b610a67610ff6565b73ffffffffffffffffffffffffffffffffffffffff168273ffffffffffffffffffffffffffffffffffffffff161415610ad5576040517f08c379a0000000000000000000000000000000000000000000000000000000008152600401610acc9061290a565b60405180910390fd5b8060056000610ae2610ff6565b73ffffffffffffffffffffffffffffffffffffffff1673ffffffffffffffffffffffffffffffffffffffff16815260200190815260200160002060008473ffffffffffffffffffffffffffffffffffffffff1673ffffffffffffffffffffffffffffffffffffffff16815260200190815260200160002060006101000a81548160ff0219169083151502179055508173ffffffffffffffffffffffffffffffffffffffff16610b8f610ff6565b73ffffffffffffffffffffffffffffffffffffffff167f17307eab39ab6107e8899845ad3d59bd9653f200f220920489ca2b5937696c3183604051610bd4919061284d565b60405180910390a35050565b610bf1610beb610ff6565b836110b7565b610c30576040517f08c379a0000000000000000000000000000000000000000000000000000000008152600401610c2790612aaa565b60405180910390fd5b610c3c8484848461156d565b50505050565b6060610c4d82610f8a565b610c8c576040517f08c379a0000000000000000000000000000000000000000000000000000000008152600401610c83906129ea565b60405180910390fd5b6000600660008481526020019081526020016000208054610cac90612d2a565b80601f0160208091040260200160405190810160405280929190818152602001828054610cd890612d2a565b8015610d255780601f10610cfa57610100808354040283529160200191610d25565b820191906000526020600020905b815481529060010190602001808311610d0857829003601f168201915b505050505090506000610d366115c9565b9050600081511415610d4c578192505050610d8f565b600082511115610d81578082604051602001610d699291906127c2565b60405160208183030381529060405292505050610d8f565b610d8a846115e0565b925050505b919050565b6000600560008473ffffffffffffffffffffffffffffffffffffffff1673ffffffffffffffffffffffffffffffffffffffff16815260200190815260200160002060008373ffffffffffffffffffffffffffffffffffffffff1673ffffffffffffffffffffffffffffffffffffffff16815260200190815260200160002060009054906101000a900460ff16905092915050565b610e30610ff6565b73ffffffffffffffffffffffffffffffffffffffff16610e4e6109a3565b73ffffffffffffffffffffffffffffffffffffffff1614610ea4576040517f08c379a0000000000000000000000000000000000000000000000000000000008152600401610e9b90612a2a565b60405180910390fd5b600073ffffffffffffffffffffffffffffffffffffffff168173ffffffffffffffffffffffffffffffffffffffff161415610f14576040517f08c379a0000000000000000000000000000000000000000000000000000000008152600401610f0b906128aa565b60405180910390fd5b610f1d816113f1565b50565b60007f01ffc9a7000000000000000000000000000000000000000000000000000000007bffffffffffffffffffffffffffffffffffffffffffffffffffffffff1916827bffffffffffffffffffffffffffffffffffffffffffffffffffffffff1916149050919050565b60008073ffffffffffffffffffffffffffffffffffffffff166002600084815260200190815260200160002060009054906101000a900473ffffffffffffffffffffffffffffffffffffffff1673ffffffffffffffffffffffffffffffffffffffff1614159050919050565b600033905090565b816004600083815260200190815260200160002060006101000a81548173ffffffffffffffffffffffffffffffffffffffff021916908373ffffffffffffffffffffffffffffffffffffffff160217905550808273ffffffffffffffffffffffffffffffffffffffff16611071836106fd565b73ffffffffffffffffffffffffffffffffffffffff167f8c5be1e5ebec7d5bd14f71427d1e84f3dd0314c0f7b2291e5b200ac8c7c3b92560405160405180910390a45050565b60006110c282610f8a565b611101576040517f08c379a00000000000000000000000000000000000000000000000000000000081526004016110f89061292a565b60405180910390fd5b600061110c836106fd565b90508073ffffffffffffffffffffffffffffffffffffffff168473ffffffffffffffffffffffffffffffffffffffff16148061117b57508373ffffffffffffffffffffffffffffffffffffffff16611163846104e0565b73ffffffffffffffffffffffffffffffffffffffff16145b8061118c575061118b8185610d94565b5b91505092915050565b8273ffffffffffffffffffffffffffffffffffffffff166111b5826106fd565b73ffffffffffffffffffffffffffffffffffffffff161461120b576040517f08c379a000000000000000000000000000000000000000000000000000000000815260040161120290612a4a565b60405180910390fd5b600073ffffffffffffffffffffffffffffffffffffffff168273ffffffffffffffffffffffffffffffffffffffff16141561127b576040517f08c379a0000000000000000000000000000000000000000000000000000000008152600401611272906128ea565b60405180910390fd5b611286838383611687565b611291600082610ffe565b6001600360008573ffffffffffffffffffffffffffffffffffffffff1673ffffffffffffffffffffffffffffffffffffffff16815260200190815260200160002060008282546112e19190612c40565b925050819055506001600360008473ffffffffffffffffffffffffffffffffffffffff1673ffffffffffffffffffffffffffffffffffffffff16815260200190815260200160002060008282546113389190612bb9565b92505081905550816002600083815260200190815260200160002060006101000a81548173ffffffffffffffffffffffffffffffffffffffff021916908373ffffffffffffffffffffffffffffffffffffffff160217905550808273ffffffffffffffffffffffffffffffffffffffff168473ffffffffffffffffffffffffffffffffffffffff167fddf252ad1be2c89b69c2b068fc378daa952ba7f163c4a11628f55a4df523b3ef60405160405180910390a4505050565b6000600760009054906101000a900473ffffffffffffffffffffffffffffffffffffffff16905081600760006101000a81548173ffffffffffffffffffffffffffffffffffffffff021916908373ffffffffffffffffffffffffffffffffffffffff1602179055508173ffffffffffffffffffffffffffffffffffffffff168173ffffffffffffffffffffffffffffffffffffffff167f8be0079c531659141344cd1fd0a4f28419497f9722a3daafe3b4186f6b6457e060405160405180910390a35050565b6001816000016000828254019250508190555050565b600081600001549050919050565b6114f582826040518060200160405280600081525061168c565b5050565b61150282610f8a565b611541576040517f08c379a0000000000000000000000000000000000000000000000000000000008152600401611538906129aa565b60405180910390fd5b80600660008481526020019081526020016000209080519060200190611568929190611c0c565b505050565b611578848484611195565b611584848484846116e7565b6115c3576040517f08c379a00000000000000000000000000000000000000000000000000000000081526004016115ba9061288a565b60405180910390fd5b50505050565b606060405180602001604052806000815250905090565b60606115eb82610f8a565b61162a576040517f08c379a000000000000000000000000000000000000000000000000000000000815260040161162190612a6a565b60405180910390fd5b60006116346115c9565b90506000815111611654576040518060200160405280600081525061167f565b8061165e8461187e565b60405160200161166f9291906127c2565b6040516020818303038152906040525b915050919050565b505050565b6116968383611a2b565b6116a360008484846116e7565b6116e2576040517f08c379a00000000000000000000000000000000000000000000000000000000081526004016116d99061288a565b60405180910390fd5b505050565b60006117088473ffffffffffffffffffffffffffffffffffffffff16611bf9565b15611871578373ffffffffffffffffffffffffffffffffffffffff1663150b7a02611731610ff6565b8786866040518563ffffffff1660e01b81526004016117539493929190612801565b602060405180830381600087803b15801561176d57600080fd5b505af192505050801561179e57506040513d601f19601f8201168201806040525081019061179b919061200c565b60015b611821573d80600081146117ce576040519150601f19603f3d011682016040523d82523d6000602084013e6117d3565b606091505b50600081511415611819576040517f08c379a00000000000000000000000000000000000000000000000000000000081526004016118109061288a565b60405180910390fd5b805181602001fd5b63150b7a0260e01b7bffffffffffffffffffffffffffffffffffffffffffffffffffffffff1916817bffffffffffffffffffffffffffffffffffffffffffffffffffffffff191614915050611876565b600190505b949350505050565b606060008214156118c6576040518060400160405280600181526020017f30000000000000000000000000000000000000000000000000000000000000008152509050611a26565b600082905060005b600082146118f85780806118e190612d5c565b915050600a826118f19190612c0f565b91506118ce565b60008167ffffffffffffffff81111561193a577f4e487b7100000000000000000000000000000000000000000000000000000000600052604160045260246000fd5b6040519080825280601f01601f19166020018201604052801561196c5781602001600182028036833780820191505090505b5090505b60008514611a1f576001826119859190612c40565b9150600a856119949190612da5565b60306119a09190612bb9565b60f81b8183815181106119dc577f4e487b7100000000000000000000000000000000000000000000000000000000600052603260045260246000fd5b60200101907effffffffffffffffffffffffffffffffffffffffffffffffffffffffffffff1916908160001a905350600a85611a189190612c0f565b9450611970565b8093505050505b919050565b600073ffffffffffffffffffffffffffffffffffffffff168273ffffffffffffffffffffffffffffffffffffffff161415611a9b576040517f08c379a0000000000000000000000000000000000000000000000000000000008152600401611a92906129ca565b60405180910390fd5b611aa481610f8a565b15611ae4576040517f08c379a0000000000000000000000000000000000000000000000000000000008152600401611adb906128ca565b60405180910390fd5b611af060008383611687565b6001600360008473ffffffffffffffffffffffffffffffffffffffff1673ffffffffffffffffffffffffffffffffffffffff1681526020019081526020016000206000828254611b409190612bb9565b92505081905550816002600083815260200190815260200160002060006101000a81548173ffffffffffffffffffffffffffffffffffffffff021916908373ffffffffffffffffffffffffffffffffffffffff160217905550808273ffffffffffffffffffffffffffffffffffffffff16600073ffffffffffffffffffffffffffffffffffffffff167fddf252ad1be2c89b69c2b068fc378daa952ba7f163c4a11628f55a4df523b3ef60405160405180910390a45050565b600080823b905060008111915050919050565b828054611c1890612d2a565b90600052602060002090601f016020900481019282611c3a5760008555611c81565b82601f10611c5357805160ff1916838001178555611c81565b82800160010185558215611c81579182015b82811115611c80578251825591602001919060010190611c65565b5b509050611c8e9190611c92565b5090565b5b80821115611cab576000816000905550600101611c93565b5090565b6000611cc2611cbd84612b16565b612ae5565b905082815260208101848484011115611cda57600080fd5b611ce5848285612ce8565b509392505050565b6000611d00611cfb84612b46565b612ae5565b905082815260208101848484011115611d1857600080fd5b611d23848285612ce8565b509392505050565b600081359050611d3a81612ea3565b92915050565b600081359050611d4f81612eba565b92915050565b600081359050611d6481612ed1565b92915050565b600081519050611d7981612ed1565b92915050565b600082601f830112611d9057600080fd5b8135611da0848260208601611caf565b91505092915050565b600082601f830112611dba57600080fd5b8135611dca848260208601611ced565b91505092915050565b600081359050611de281612ee8565b92915050565b600060208284031215611dfa57600080fd5b6000611e0884828501611d2b565b91505092915050565b60008060408385031215611e2457600080fd5b6000611e3285828601611d2b565b9250506020611e4385828601611d2b565b9150509250929050565b600080600060608486031215611e6257600080fd5b6000611e7086828701611d2b565b9350506020611e8186828701611d2b565b9250506040611e9286828701611dd3565b9150509250925092565b60008060008060808587031215611eb257600080fd5b6000611ec087828801611d2b565b9450506020611ed187828801611d2b565b9350506040611ee287828801611dd3565b925050606085013567ffffffffffffffff811115611eff57600080fd5b611f0b87828801611d7f565b91505092959194509250565b60008060408385031215611f2a57600080fd5b6000611f3885828601611d2b565b9250506020611f4985828601611d40565b9150509250929050565b60008060408385031215611f6657600080fd5b6000611f7485828601611d2b565b925050602083013567ffffffffffffffff811115611f9157600080fd5b611f9d85828601611da9565b9150509250929050565b60008060408385031215611fba57600080fd5b6000611fc885828601611d2b565b9250506020611fd985828601611dd3565b9150509250929050565b600060208284031215611ff557600080fd5b600061200384828501611d55565b91505092915050565b60006020828403121561201e57600080fd5b600061202c84828501611d6a565b91505092915050565b60006020828403121561204757600080fd5b600061205584828501611dd3565b91505092915050565b61206781612c74565b82525050565b61207681612c86565b82525050565b600061208782612b76565b6120918185612b8c565b93506120a1818560208601612cf7565b6120aa81612e92565b840191505092915050565b60006120c082612b81565b6120ca8185612b9d565b93506120da818560208601612cf7565b6120e381612e92565b840191505092915050565b60006120f982612b81565b6121038185612bae565b9350612113818560208601612cf7565b80840191505092915050565b600061212c603283612b9d565b91507f4552433732313a207472616e7366657220746f206e6f6e20455243373231526560008301527f63656976657220696d706c656d656e74657200000000000000000000000000006020830152604082019050919050565b6000612192602683612b9d565b91507f4f776e61626c653a206e6577206f776e657220697320746865207a65726f206160008301527f64647265737300000000000000000000000000000000000000000000000000006020830152604082019050919050565b60006121f8601c83612b9d565b91507f4552433732313a20746f6b656e20616c7265616479206d696e746564000000006000830152602082019050919050565b6000612238602483612b9d565b91507f4552433732313a207472616e7366657220746f20746865207a65726f2061646460008301527f72657373000000000000000000000000000000000000000000000000000000006020830152604082019050919050565b600061229e601983612b9d565b91507f4552433732313a20617070726f766520746f2063616c6c6572000000000000006000830152602082019050919050565b60006122de602c83612b9d565b91507f4552433732313a206f70657261746f7220717565727920666f72206e6f6e657860008301527f697374656e7420746f6b656e00000000000000000000000000000000000000006020830152604082019050919050565b6000612344603883612b9d565b91507f4552433732313a20617070726f76652063616c6c6572206973206e6f74206f7760008301527f6e6572206e6f7220617070726f76656420666f7220616c6c00000000000000006020830152604082019050919050565b60006123aa602a83612b9d565b91507f4552433732313a2062616c616e636520717565727920666f7220746865207a6560008301527f726f2061646472657373000000000000000000000000000000000000000000006020830152604082019050919050565b6000612410602983612b9d565b91507f4552433732313a206f776e657220717565727920666f72206e6f6e657869737460008301527f656e7420746f6b656e00000000000000000000000000000000000000000000006020830152604082019050919050565b6000612476602e83612b9d565b91507f45524337323155524953746f726167653a2055524920736574206f66206e6f6e60008301527f6578697374656e7420746f6b656e0000000000000000000000000000000000006020830152604082019050919050565b60006124dc602083612b9d565b91507f4552433732313a206d696e7420746f20746865207a65726f20616464726573736000830152602082019050919050565b600061251c603183612b9d565b91507f45524337323155524953746f726167653a2055524920717565727920666f722060008301527f6e6f6e6578697374656e7420746f6b656e0000000000000000000000000000006020830152604082019050919050565b6000612582602c83612b9d565b91507f4552433732313a20617070726f76656420717565727920666f72206e6f6e657860008301527f697374656e7420746f6b656e00000000000000000000000000000000000000006020830152604082019050919050565b60006125e8602083612b9d565b91507f4f776e61626c653a2063616c6c6572206973206e6f7420746865206f776e65726000830152602082019050919050565b6000612628602983612b9d565b91507f4552433732313a207472616e73666572206f6620746f6b656e2074686174206960008301527f73206e6f74206f776e00000000000000000000000000000000000000000000006020830152604082019050919050565b600061268e602f83612b9d565b91507f4552433732314d657461646174613a2055524920717565727920666f72206e6f60008301527f6e6578697374656e7420746f6b656e00000000000000000000000000000000006020830152604082019050919050565b60006126f4602183612b9d565b91507f4552433732313a20617070726f76616c20746f2063757272656e74206f776e6560008301527f72000000000000000000000000000000000000000000000000000000000000006020830152604082019050919050565b600061275a603183612b9d565b91507f4552433732313a207472616e736665722063616c6c6572206973206e6f74206f60008301527f776e6572206e6f7220617070726f7665640000000000000000000000000000006020830152604082019050919050565b6127bc81612cde565b82525050565b60006127ce82856120ee565b91506127da82846120ee565b91508190509392505050565b60006020820190506127fb600083018461205e565b92915050565b6000608082019050612816600083018761205e565b612823602083018661205e565b61283060408301856127b3565b8181036060830152612842818461207c565b905095945050505050565b6000602082019050612862600083018461206d565b92915050565b6000602082019050818103600083015261288281846120b5565b905092915050565b600060208201905081810360008301526128a38161211f565b9050919050565b600060208201905081810360008301526128c381612185565b9050919050565b600060208201905081810360008301526128e3816121eb565b9050919050565b600060208201905081810360008301526129038161222b565b9050919050565b6000602082019050818103600083015261292381612291565b9050919050565b60006020820190508181036000830152612943816122d1565b9050919050565b6000602082019050818103600083015261296381612337565b9050919050565b600060208201905081810360008301526129838161239d565b9050919050565b600060208201905081810360008301526129a381612403565b9050919050565b600060208201905081810360008301526129c381612469565b9050919050565b600060208201905081810360008301526129e3816124cf565b9050919050565b60006020820190508181036000830152612a038161250f565b9050919050565b60006020820190508181036000830152612a2381612575565b9050919050565b60006020820190508181036000830152612a43816125db565b9050919050565b60006020820190508181036000830152612a638161261b565b9050919050565b60006020820190508181036000830152612a8381612681565b9050919050565b60006020820190508181036000830152612aa3816126e7565b9050919050565b60006020820190508181036000830152612ac38161274d565b9050919050565b6000602082019050612adf60008301846127b3565b92915050565b6000604051905081810181811067ffffffffffffffff82111715612b0c57612b0b612e63565b5b8060405250919050565b600067ffffffffffffffff821115612b3157612b30612e63565b5b601f19601f8301169050602081019050919050565b600067ffffffffffffffff821115612b6157612b60612e63565b5b601f19601f8301169050602081019050919050565b600081519050919050565b600081519050919050565b600082825260208201905092915050565b600082825260208201905092915050565b600081905092915050565b6000612bc482612cde565b9150612bcf83612cde565b9250827fffffffffffffffffffffffffffffffffffffffffffffffffffffffffffffffff03821115612c0457612c03612dd6565b5b828201905092915050565b6000612c1a82612cde565b9150612c2583612cde565b925082612c3557612c34612e05565b5b828204905092915050565b6000612c4b82612cde565b9150612c5683612cde565b925082821015612c6957612c68612dd6565b5b828203905092915050565b6000612c7f82612cbe565b9050919050565b60008115159050919050565b60007fffffffff0000000000000000000000000000000000000000000000000000000082169050919050565b600073ffffffffffffffffffffffffffffffffffffffff82169050919050565b6000819050919050565b82818337600083830152505050565b60005b83811015612d15578082015181840152602081019050612cfa565b83811115612d24576000848401525b50505050565b60006002820490506001821680612d4257607f821691505b60208210811415612d5657612d55612e34565b5b50919050565b6000612d6782612cde565b91507fffffffffffffffffffffffffffffffffffffffffffffffffffffffffffffffff821415612d9a57612d99612dd6565b5b600182019050919050565b6000612db082612cde565b9150612dbb83612cde565b925082612dcb57612dca612e05565b5b828206905092915050565b7f4e487b7100000000000000000000000000000000000000000000000000000000600052601160045260246000fd5b7f4e487b7100000000000000000000000000000000000000000000000000000000600052601260045260246000fd5b7f4e487b7100000000000000000000000000000000000000000000000000000000600052602260045260246000fd5b7f4e487b7100000000000000000000000000000000000000000000000000000000600052604160045260246000fd5b6000601f19601f8301169050919050565b612eac81612c74565b8114612eb757600080fd5b50565b612ec381612c86565b8114612ece57600080fd5b50565b612eda81612c92565b8114612ee557600080fd5b50565b612ef181612cde565b8114612efc57600080fd5b5056fea2646970667358221220e6e883ecaa222c248569beb826c10031b21a8366387c2ce1e38ee4ed2775938b64736f6c63430008000033",
  "linkReferences": {},
  "deployedLinkReferences": {}
}